:020000040000FA
:10000000F80A0020C1000000F9000000FB00000019
:10001000FFFFFFFFFFFFFFFFFFFFFFFFFFFFFFFFF0
:10002000FFFFFFFFFFFFFFFFFFFFFFFFFD000000DF
:10003000FFFFFFFFFFFFFFFFFF000000B10D00000B
:1000400003010000030100000301000003010000A0
:100050000301000003010000030100000301000090
:1000600003010000FFFFFFFF030100000301000088
:10007000030100000301000003010000FFFFFFFF78
:10008000FFFFFFFF49020000030100000301000021
:10009000030100000301000003010000ED0E000059
:1000A0000301000003010000030100000301000040
:1000B00003010000511600000301000003010000CD
:1000C0001048804710488047104800471048016991
:1000D000002910D1416900290DD1816900290AD177
:1000E000C169002907D1BFF34F8F0A490A48C86088
:1000F000BFF34F8FFEE77047FEE7FEE7FEE7FEE740
:10010000FEE7FEE7CD000000B50D00001D01000078
:100110000003084000ED00E00400FA0503488546AE
:1001200000F032F800480047091F0000F80A0020DC
:1001300001688D464168084730B50B4601460020EE
:100140002022012409E00D46D5409D4205D31D46DD
:100150009540491B2546954040191546521E002DD5
:10016000F1DC30BD03460B439B0703D009E008C90F
:10017000121F08C0042AFAD203E00B780370401C57
:10018000491C521EF9D27047064C0125064E05E067
:10019000E36807CC2B430C3C98471034B442F7D3A8
:1001A000FFF7C0FF90200000B0200000F0B5964699
:1001B0000A461349C000461800230025FF20984036
:1001C0002C46104216D00020012199408C46114641
:1001D000C1406746394206D087000F21B9400D4320
:1001E0007146B9400C43401C0828F0D33068A8433E
:1001F000204330600833361D082BDEDDF0BD0000E3
:100200002020024038B5044655202070881C0D4639
:100210006070002320461946425C491CD218C9B2BE
:10022000D3B20429F8D3D843401C20712A46214672
:10023000002000F009F9694608806019097801700A
:1002400069464978417038BD10B5064900204860BC
:1002500005484168491C41600121017000F06EFBB6
:1002600010BD000000600740280000200422002983
:10027000016801D0114300E09143016070470029FB
:10028000016802D00122114301E0490849000160E0
:100290007047C160704700214160016070470023D2
:1002A00003604360C26081607047F8B515460E4632
:1002B0000746002406E03119384600F007F8002808
:1002C00002D0641CAC42F6D32046F8BD10B50446FB
:1002D000636800202268934209D0A068805C08709F
:1002E0002068E168401CFFF727FF0120216010BD56
:1002F00070B50E460446C16840680025401CFFF7F3
:100300001BFF2068814208D06068A1680E54401C21
:10031000E168FFF711FF61600125284670BD416863
:100320000068814201D1012070470020704710B55C
:1003300001200321002280028903012300F070F8CC
:1003400010BD000070B5184D0446686B4607760F67
:1003500000F02EF815492060330001F0B9FD0814B3
:1003600005070714140E1114606000E06160296A2B
:100370006068052909D3400908E00120C003F3E7BC
:100380007D200002F0E70020EEE7C840A060A96AE7
:100390004903490F072902D0C840E06070BD03211E
:1003A000FFF7CAFEF9E700000080084000127A005B
:1003B0000C490868C869C20F4868400AC007C00FE6
:1003C0000ED00948002A0BD18869C00D0007000F24
:1003D00000D110208969044A4902890F5043C8405E
:1003E000704700000080084000127A001FB54109E4
:1003F0000A4A89008A1800212E2800D10221C0064D
:10040000C00E1268032383401A40C2405418684645
:10041000FFF798FF029804B0E04010BD3880084014
:10042000F0B5084F7C6AFD6A3E6B84438D4396436A
:10043000002B02D004430D4316437C62FD623E63F1
:10044000F0BD000000800840F0B59446002615E09D
:100450008B5D020A5A40140200230A4F08252246E7
:100460005A40120402D55B007B4000E05B00640050
:100470006D1EF4D10002434098B2761C6645E7D366
:10048000F0BD000021100000F0B59446002615E0F4
:100490008B5D020A5A40140200230A4F08252246A7
:1004A0005A40120402D55B007B4000E05B00640010
:1004B0006D1EF4D19AB200025040761C6645E7D317
:1004C00080B2F0BD2110000001218140014841604F
:1004D00081607047404002400121814002488161B3
:1004E000BFF34F8F704700004040024004498969C4
:1004F00001228240114201D0012070470020704744
:10050000404002400122054B82401868012902D078
:100510009043186070471043FBE7000040400240E2
:1005200010B50123084C8340012A02D0206998436A
:1005300006E06069002905D018436061206918430E
:10054000206110BD9843F8E74040024000B50349E0
:1005500008600820C86000F04DF800BD00000840A9
:1005600010B50A4B03218A00D418246AE44384504E
:10057000491EF8D5196BC907C917491C0161196BC8
:100580008907C917491C416110BD000000000840DF
:10059000034BD86019605A6014201861704700003E
:1005A0000000084010B5124910484A6902231A4356
:1005B0004A6114220A6104E00A691207920F032AB1
:1005C00001D0401EF8D28A698C699C438C619103EA
:1005D00001D5022010BD910701D5012010BD0028D2
:1005E00001D0002010BD032010BD0000FFFF0F0050
:1005F0000000084010B5124910484A6902231A4306
:100600004A6114220A6104E00A691207920F032A60
:1006100001D0401EF8D28A698C699C438C61910399
:1006200001D5022010BD910701D5012010BD002881
:1006300001D0002010BD032010BD0000FFFF0F00FF
:1006400000000840002A026801D00A4300E08A4303
:1006500002607047F0B5002425462346CE0706D039
:100660005E001746B7403C430327B7403D43490867
:100670005B1C102BF2D34169A943416141692143BD
:100680004161F0BD002A08D0012A09D082688A435E
:100690008260C2688A43C260704782680A43F7E793
:1006A000C2680A43C26082688A4382607047000061
:1006B00070B51549486AE52210434862032000F0EE
:1006C00099FA124C0519012000F094FA0019451905
:1006D000022000F08FFA00194519002000F08AFA74
:1006E00000194219002081000B78D21ACB781B0622
:1006F000D21A4B7889781B02D21A0904521A401C6C
:100700000428F0D3500870BD008008404E265700E2
:1007100070B50D46114900014418002021214902FD
:1007200001230246FFF77CFE227AE1882079FFF759
:100730003DFDA27BA189A07AFFF738FD29462068FC
:1007400000F008FC01220021206800F04DFC01228D
:100750001146206800F048FC70BD000080200000B9
:10076000F8B5054613481349465D680010310C5A28
:1007700008460D38475DB0000C31085800903046EF
:1007800000F06EFF3A4621463046FFF70FFD28463F
:1007900000F012F8214602220098FFF773FF21466D
:1007A00001220098FFF756FF214601220098FFF72B
:1007B00049FFF8BD4C200000044A4100515A103A4C
:1007C000105C80001C321058416270475C200000B1
:1007D000044A4100515A103A105C80001C321058F3
:1007E000816270475C200000F8B51F4E3068022817
:1007F00038D01E4C00271E4D676060682918401CC9
:1008000060601C48FFF762FD60684028F5D36C8883
:10081000EF70AF70402216490020FFF715FE2978CF
:10082000502903D301224A3932602970C9B20829FC
:1008300001D8844204D046240E48FFF72CFD0CE07A
:100840000120C04300F066FA2B780B4C9B00E35864
:100850006878AA68696898470446064821461038AF
:10086000FFF746FDF8BD0000140000203000002016
:10087000B8050020500100200420000010B511210F
:1008800012480906016012498A68152312045B02A6
:10089000D21842604A6875235B040B3A1A4382609F
:1008A0000522D202C260C968442209010909016116
:1008B000811A0848FFF7F3FC064901222031084657
:1008C00092021038FFF7EBFC10BD0000A4050020D9
:1008D000800108404001002070B5054600F09AFFF5
:1008E00001246407002D01D00F4809E000F058F9F9
:1008F000002816D000F06AF9002812D00A48401FDC
:1009000020600A480460002000F01AFD0848401EDC
:10091000FDD1BFF34F8F08490648C860BFF34F8F22
:10092000FEE7002070BD0000F5FAAA5580E100E066
:10093000801A06000400FA0500ED00E00648418830
:10094000002902D04188491E41808188002902D0B7
:100950008188491E8180704738000020F7B5002447
:100960007D2715460E46FF00321B09480099FFF708
:100970009CFC001984B2B44207D2384600F0C4F996
:1009800028466D1EADB20028EED12046FEBD000007
:10099000D8080020FEB5FF250024013541210902B9
:1009A000280201232246FFF73BFD062204210020F6
:1009B000FFF7FCFB062208210020FFF7F7FB0022CF
:1009C00008211548FFF75EFE14496A008818FFF7F2
:1009D00066FCAE05304600F09BFAE1204002009034
:1009E000684685800481C48044816946304600F0B1
:1009F000B1FA01221146304600F0EEFA0122002140
:100A0000304600F0F1FA01221146304600F0ECFACF
:100A10000349E8030860FEBD00000B40D806002033
:100A200000E100E007498A06106004E01069C00593
:100A300001D5012070470846491E89B20028F5D12A
:100A4000704700001027000030B50D460446002313
:100A500006E0E05CFFF7E6FF002803D05B1C9BB2DA
:100A6000AB42F6D3184630BDF8B520480A270068D7
:100A70001F4C00261F4D012813D007E028780028BE
:100A800010D0012818D002281ED02E706422012117
:100A90006846FFF763FF0028F0D16888002800D17E
:100AA0002E70F8BD684600785528FAD120700120D4
:100AB000A86028706F80E9E768460178A86821542B
:100AC000401CA8600220F4E7FF20F53068806846EB
:100AD0000178A8682154401CA86061788142D5D86B
:100AE00000F0A0F82E706420A880F8BD140000204B
:100AF000400600203800002010B500F0CFF901209A
:100B000000F0ECF911210C48090601600B498A68D4
:100B1000152312045B02D21842604A684B680A3AF5
:100B200012040A3B1A4382600522D202C260C968DD
:100B30000161FFF72FFF10BD2C0600208001084047
:100B400001214907002814D00B4808600B4C4F20A6
:100B5000A07005212046FFF755FB61782046FFF77E
:100B600073FFBFF34F8F07490548C860BFF34F8F2E
:100B7000FEE70148401FE8E7F5FAAA558F06002076
:100B80000400FA0500ED00E00521C902401A012128
:100B90004902884201D201207047002070470000BE
:100BA000152149020868072252078018064A904218
:100BB00005D24868401A75218902884201D3002075
:100BC0007047012070470000014000000520C0026E
:100BD0000168481C09D0064B002003E01A58521C3B
:100BE00004D0001D8842F9D30120704700207047CF
:100BF0000428000070B50025094C80002060012009
:100C0000E06014202061FFF7CDFC002806D11820F9
:100C10002061FFF7C7FC002800D1A568284670BDF9
:100C200000000840FEB5224F224C0520F86000204D
:100C30002546E0704F3D6A78A8181E38417F007F36
:100C40000E02064329460020921EFFF7FDFBA978FD
:100C5000502904D30222184B46391A60A97029463C
:100C6000AD78462201230A2D01D8864202D0A27017
:100C7000E37014E0CE78042201A8491D0096FFF726
:100C800071FA0C490422463902A8FFF76BFA0B4BA4
:100C9000A8001B583046029A01999847A070397BEA
:100CA0000448FFF7AFFA61780248FFF7CDFEFEBDBA
:100CB000380000208F0600201400002024200000AF
:100CC0000EB5E12040020090FF2001306946888087
:100CD0000020C88008814881FFF71AFD0EBD000082
:100CE000F0B5084F7C68BD68FE6884438D43964329
:100CF000002B02D004430D4316437C60BD60FE60B0
:100D0000F0BD00000081084018214843401EFDD27C
:100D1000704700000749002806D00128086906D05E
:100D20004008400008617047002088617047012238
:100D30001043F7E700E000E010B51B48006800280A
:100D400031D000210C20FFF7DDFB184800F0C6F978
:100D50000446012807D1012211460C20FFF7E0FBD1
:100D60000C20FFF7B9FB0C20FFF7C0FB012802D0D5
:100D7000012C09D010E0012C0ED10C4800F072FAC1
:100D8000012801D100F093FA002201210C20FFF785
:100D9000C7FB0C20FFF7A0FB0C20FFF795FB012100
:100DA0000C20FFF7AFFB10BD1000002068000020F2
:100DB00070470000F0B534491020C8603349012065
:100DC00008603348016B40242143016331498A683C
:100DD000272AFCD1416A0322920291434162416871
:100DE0000122D202114341608168C908C907FBD0C2
:100DF0004168C908C900C91C4160416B4907490FD6
:100E00000329FAD1244B1968C908C900491C196083
:100E10000025056241685E15B143416001689F1578
:100E20003943016041681A1511434160816889089E
:100E3000C907FBD0016BA14301630168B94301609D
:100E40000321090681614168314341608168490895
:100E5000C907FBD01968C908C900891C1960056257
:100E60004168C908C900491C4160416B4907490FE5
:100E70000129FAD11868102108431860186809027E
:100E800008431860F0BD000000810840008308405E
:100E90000080084000A106400002084010B5002074
:100EA0000122120401230146FFF7BAFA002000F0E4
:100EB00015F8084C06492046FFF7EBF901212046BA
:100EC000FFF7D4F9012004494004086010BD000078
:100ED0003F9C00000060074000E100E010B50146C3
:100EE0000148FFF7CCF910BD0060074010B50120A4
:100EF0008007C168C90707D00169C90704D0006825
:100F0000C1B20248FFF7F4F910BD0000D808002074
:100F10000021012310B59B070A46984200D1811594
:100F2000094B984201D143151943084B984201D10E
:100F300003151943064B984201D1C0140143012304
:100F40001046FFF7CDFE10BD000004400010004029
:100F50000010044070B504460D46C8888988626850
:100F600008432989184B1A401143084369890843EB
:100F7000606001208007844206D11820FFF736FA0E
:100F80002968FFF7D9F860621048844206D11A2018
:100F9000FFF72CFA2968FFF7CFF860620C4884420B
:100FA00006D11C20FFF722FA2968FFF7C5F8606216
:100FB0000848844206D11E20FFF718FA2968FFF777
:100FC000BBF8606270BD0000FCE0FFFF0000044061
:100FD0000010004000100440002AC26801D00A43FB
:100FE00000E08A43C260704710238B404168002AAA
:100FF00001D0194300E099434160704770B50B4C34
:101000006168A06840224118042000F032FA0546C9
:101010006168A0684018402100F046FB60684019F4
:101020008005800D6060FFF7DFFB70BD5001002080
:101030000449816004498161044941620449C163F2
:1010400070470000A9100000B1100000551000000A
:10105000FD0F000070B504460088114988421EDA71
:10106000FF38A2281BD1E078E588012817D10D4868
:10107000FFF755F9002812D143210A48002202E067
:1010800083685A54491E43688B42F9D980682562A7
:10109000E0610120203420710248FFF7FCF870BDA8
:1010A000210900004001002010B500F0B3FB10BD85
:1010B000C278014601232031212A07D0222A04D1F7
:1010C000054AC261222202620B717047C268123265
:1010D000C2610922F7E70000741F00002030007D84
:1010E0008007C00F70470000F8B5044600F02CFAE6
:1010F0000646800707D5E16C002901D0206D88479E
:10110000022000F0E9F82546F006203500280BDA29
:10111000102000F0E1F8A87C022805D300F020FAA6
:10112000A87CE8740320A874700724D5274680376C
:10113000B86800900020C0432062002028746874C2
:10114000297DFD22114029750421A974A06300F0B6
:1011500003F900F00DFA0020B96800F05CF900987E
:10116000006800F0D9F9616C002901D0A06C8847B3
:10117000042000F0B1F8300706D500F0F9F9E87C5A
:10118000A874082000F0A8F8F0052E4E3CD50020E9
:1011900000F031F90746800509D5204600F03EFAF7
:1011A000204600F006FD7100002000F0EDF8F80682
:1011B00006D5204600F0DCFC1021002000F0E4F809
:1011C000B8071ED50221002000F0DEF8206A401C7E
:1011D00017D02879022814D140220020E16900F0BC
:1011E00048F9E1690918E161216A081A206208D109
:1011F00001202871A16A002903D0E06A88470020F5
:10120000A062304600F068F8122700F09DF900F067
:101210008BF90546401C14D0284600F0ECF8384203
:10122000F3D01221284600F0AFF83046A84000F075
:1012300053F8A8000019816E0029E6D02846884797
:10124000E3E7F8BD0001000010B50549022208607F
:1012500032210A548030806800F07EF910BD000011
:10126000480000202030807C032801D000207047F7
:101270000120704770B5044606462036307D25466D
:10128000C1078035C90FA86800F07AF9B07C03283F
:1012900004D1E968002901D028698847E16B002959
:1012A00004D0B07C062801D1206C884770BD10B5F1
:1012B00000F05EF900F0BAF910BD000004490160C9
:1012C00014314160034981600421C160704700000E
:1012D000981F000018000020014988607047000036
:1012E00000800A400C4910B50846143881600B494B
:1012F000C1607838FFF7E2FF07485838FFF798FEDB
:1013000005489438FFF7A0FF012005494007086011
:10131000012000F015F810BDFC000020390D000080
:1013200000E100E001220549D2020128086802D04C
:101330009043086070471043FBE7000000800A40BC
:1013400004490A150128086802D0904308607047D4
:101350001043FBE700800A4010B500212020012344
:101360000A46FFF7BDFC10BD10B500F067FD01682F
:1013700009221140016010BD10B500F05FFD016849
:1013800024221140016010BD10B50C4600F056FD3E
:10139000846010BD10B500F051FD00690249800560
:1013A000800D401810BD000000A00A4070B5054631
:1013B00000F044FD0446284600F00AF8216989053A
:1013C000890D40180149401870BD000000A00A4076
:1013D00010B500F033FD00690003800D10BD10B59D
:1013E00000F02CFD01690068C90001D5400700E04C
:1013F0008006C00F10BD10B500F020FD4168806868
:10140000084010BD10B50C4600F018FDC068E04063
:10141000C005C00D10BD70B50C46054600F00EFDB0
:10142000E90009194A680261896841600021C943DD
:101430008160284600F035F870BDF8B516460F46B5
:10144000050011D00021FFF7DDFF0446B04209D8A6
:10145000002D28460AD0FFF79DFFE11C8A08394677
:1014600000F0A6FC2046F8BD1021ECE7FFF79EFF38
:10147000F3E7F8B515460E46074600F0DFFC0446D4
:101480000020002D08D02A4631463846FFF7D5FF08
:10149000002801D1002D03D12168102211402160C4
:1014A000F8BD10B500F0CAFC0168192211400160B6
:1014B00010BD10B500F0C2FC0421016010BD10B5D4
:1014C00000F0BCFC4021816002682421914301604E
:1014D00010BDF7B514460746FFF77AFF06463846B3
:1014E00000F0ACFC054600213846FFF78BFFB44204
:1014F00001D8002801D00020FEBD3846FFF74AFF82
:101500000146E01C8208019800F052FCEC600220C9
:1015100028602046FEBD000002494A6802434A6036
:101520007047000000800A40034607210A4618461B
:101530000832D040C00701D048B27047491E002988
:10154000F4DC0020C04370470248416880680840CE
:101550007047000000800A4000B500F045F800BD6B
:10156000024801680C2211430160704700800A4064
:1015700002480168021511400160704700800A406E
:10158000034600B51348016801290CD10021016010
:10159000114801684A06114906D5114A0260816066
:1015A0001868FFF7B9FF00BD0E4A02608160002095
:1015B000FFF7B8FE1868FFF7AFFF0020FFF7C0FE87
:1015C000C8210020401C8842FCD30120FFF7B8FE50
:1015D00000BD00004C00002000800A40FFFFFFFF1C
:1015E0000C0400000C0C0000074901600749416031
:1015F000074981600749C1610021016206494162D2
:1016000002218162704700001D1100000800018066
:101610001202000088000193C800018402490A6890
:10162000026049684160704700A00A4002480168B2
:10163000202211430160704700800A4003490A6874
:101640008B151A430A6008617047000000800A4049
:1016500010B50248FFF748FD10BD000068000020EB
:101660001CB50022009201216B4601921954187892
:101670004904C007C00B88435978C907890B084340
:101680000121890488439978C907490B084301213E
:10169000C9048843D9780123C907090B08430121EC
:1016A0008903FEF7BDFE1CBDFEB50446C91C8E08AD
:1016B0005148514900791039002820D000274E4D5B
:1016C0001AE0B80021582A68514021504A480222A5
:1016D00010380088484980B2FEF7D6FE0090464890
:1016E000022210380068A91C000CFEF7CDFE010490
:1016F000009808187F1C2860B742E2D379E0E069BF
:101700000D4648604868810A3C2001406158A96044
:10171000A968090D01406158E9606968490C0140F8
:101720006158A960A968C90C01406058E860A868C0
:10173000324F2860796A32484160396B8160786A3B
:10174000E52108437862386B4021084338632D480F
:101750000090411E009101D30846FAE72A488068AC
:101760002A494018806D000C00040090FEF7A0FF8D
:10177000019023484168796280683863002133E032
:10178000880084462058009AEB685A40019B4240EA
:101790009A4218D10022D2686B684240AF687B4001
:1017A0005A406A60009A1A4B5040134A10606046D3
:1017B00020581B685840AB686F687B405840A86051
:1017C000012010710FE0124AAB68126842406F6846
:1017D0007B405A40AA600022D26850406A68AB68D9
:1017E0005A4050406860491CB142C9D30020009063
:1017F00001900120FEBD0000600000200080084034
:10180000E80800208813000000A1064001010840FC
:10181000800000200349002008710860103908602A
:10182000704700006000002010B580B2FEF70CFE8B
:10183000044601460448FEF75BFD210A0248FEF714
:1018400057FD4F2010BD00004001002070B5154627
:101850000A2803D00520C002814201D2462070BD73
:101860000C4605E02046FEF771FEFF34FF340234DB
:10187000AC42F7D94F2070BD0020FFF761FDFEE7B5
:10188000F7B588B000270C462E4D3E4668460697B1
:10189000FEF766FE0498012800D1069008980128FA
:1018A0004BD10698002814D00A98001B401C03E076
:1018B000E159491C39D13F1DB842F9D8089801288F
:1018C00007D03AE0214604202A68FEF761FE241D75
:1018D0002D1D0A988442F5D92FE01B48844201D976
:1018E000002000E020680899002918D003291AD0A8
:1018F000069900290BD00521C9020122611A920222
:10190000914204D311496118502900D30020104A94
:10191000B1001268761C5050102E09D00BE02968D7
:10192000814202D107E0401C05D046200BB0F0BD3B
:10193000002600F019F8241D2D1D0A988442CCD9E8
:101940004F20F3E7C4050020FC03F01F000010E067
:101950003000002010B5402202490320FFF7B9FDF6
:101960004F2010BDA40500200548102181614021B1
:10197000C161022101618169C906FCD5704700007F
:1019800040800A404F20704707B5009880B2FEF7AC
:101990005BFD084A00900649D0686B4609181B7821
:1019A0000B706B465B784B70801CD0604F200EBD77
:1019B0008F060020380000204F20704770B5154674
:1019C0000A2803D00520C002814204D2084903201E
:1019D000C870462070BD0C4605E02046FEF7B6FDF7
:1019E000FF34FF340234AC42F7D94F2070BD000001
:1019F0008F060020054C4F20A07005212046FEF7E1
:101A000001FC61782046FFF71FF8FEE78F060020F3
:101A1000F0B589B0064617460C46374D01A8FEF7CB
:101A20009FFD012E09D10020391B491C03E02258DB
:101A3000521C39D1001D8142F9D8002E01D0012E4F
:101A400056D12046FFF7A0F8012E0FD050E0042217
:101A5000294607A8FEF786FB284804220799C2609A
:101A60000460416014210161241D2D1DBC42EED98A
:101A70003EE02348844201D9002000E02068009025
:101A8000002E05D0032E0DD00598012813D01FE09D
:101A90000422294607A8FEF765FB079900988842AB
:101AA00002D123E0401C21D0134904204231C870E8
:101AB000462009B0F0BD0520C0020121201A4902CC
:101AC000884205D30F482018502801D300200090E9
:101AD0000D490948C9684230401804226946FEF79A
:101AE00041FB09480849C068001DC860241D2D1D20
:101AF000BC42BED94F20DCE74D0600200000084064
:101B0000FC03F01F000010E0380000200549044BE2
:101B1000C868F5221A54401CC8604F207047000066
:101B20008F0600203800002070B50F4C4F20A070A9
:101B300021460C226339601DFEF714FB112120465B
:101B4000FEF760FB61782046FEF77EFF074D2146D9
:101B5000E868082220185739FEF704FBE8680830C7
:101B6000E8604F2070BD00008F0600203800002084
:101B700070B504460020FFF72BFC0546206A411C87
:101B800016D0214620310A79012A11D1A84202D368
:101B9000401B206204E005460020206202200871FC
:101BA0002A460020E169FFF794FCE0694019E061F2
:101BB00070BD70B5054600212035297104460162CB
:101BC00000786021084004D0202806D040280BD19E
:101BD00005E0204600F03CF806E0216E00E0616E72
:101BE000002901D0204688472879012805D00228FD
:101BF0000CD00020FFF75DFC70BDE088216A8142B7
:101C000000DD20622046FFF7B3FF70BD00221146C1
:101C10001046FFF75EFC70BD70B5044600202546F7
:101C200020356076002909D0012908D002290ED17B
:101C300020790007000FFFF7D2FB00E0287D207617
:101C400020461830E061022020620120287170BD1A
:101C500070B5018805231B020446CA1A01252034E9
:101C6000994245D01BDC3D4BCA1A994239D009DC58
:101C7000802932D0812932D0822902D10221FFF776
:101C8000CBFF70BD022A2ED0FF3AFF3A921E2CD015
:101C9000022AF6D10122022100F062F870BD012370
:101CA0009B02D11A9A4246D00DDCFF3A813A25D0E8
:101CB000012A3ED0FF3AFF3A022AEFD101463031E5
:101CC0000562C16133E0FF39823944D08029E5D112
:101CD000816D0029E2D0884770BD0021CFE7012146
:101CE000CDE7002202E00022D5E701220021D3E760
:101CF0008078FFF7A3FC257105202AE0C17801292F
:101D00000FD002290FD00329E6D1817842698A4297
:101D1000E2D90269890051580029DDD0C1610978F2
:101D200004E08168FAE7C168C161498801622571F0
:101D300070BD416DCDE7817821742571012506467E
:101D4000803668B2B168FFF766FB6D1C082DF8D3CA
:101D50000620A07470BDC16DBBE70000000100004B
:101D600070B505460126203500290CD0022909D17D
:101D700001790C07240F04D0002A0FD02046FFF76A
:101D80009EFB2E7170BD80780128FBD1287DFD213E
:101D90000840D107890F08432875F2E7806B0028B7
:101DA000EFD12046FFF7E8FA2046FFF7DDFAE8E733
:101DB00030B5830708D000248B0707D00023002C00
:101DC00006D0002B26D032E00124F5E70123F6E708
:101DD000002B01D000231AE0521E1AD403780B7096
:101DE00043784B7083788B70C378CB70001D091DCE
:101DF000F2E7457804782D022C1985782D042C19EA
:101E0000C578001D2D062C199D004C515B1C93427A
:101E1000EFD330BD521EFCD49300C3580B701C0A84
:101E20004C701C0C8C701B0ECB70091DF2E7521EFF
:101E3000EFD49300C458CC50F9E700001421484374
:101E4000014940187047000014800A4010B501286D
:101E500005D0022809D0032812D0462010BD012940
:101E600001D0002004E0002006E0012903D0012079
:101E7000FEF7A2FC02E00120FEF7AAFC4F2010BDF5
:101E8000012901D00220F3E70220F5E70E4910B541
:101E90000B463433002803D0012809D0462010BD5A
:101EA0000A781A54401C491C3428F9D34F2010BD1D
:101EB000064A00201C581168001D10C1116034280A
:101EC000F8D3FFF751FDF1E7C405002030000020F2
:101ED00030B47446641E2578641CAB4200D21D46A3
:101EE000635D5B00E31830BC184702E008C8121FAE
:101EF00008C1002AFAD170477047002001E001C1F3
:101F0000121F002AFBD17047FEF711FAFEF7D8FE28
:101F100014480068C0070DD001204007006812492E
:101F2000884207D0FEF73CFE012803D1152040026D
:101F3000FEF7FEF80D4900204860FEF79FFCFEF713
:101F4000DBFD0020FEF70CFC0120FEF709FC02205F
:101F5000FEF706FCFFF7C6F90548FFF78BF9FEF719
:101F600083FDF9E700010840F5FAAA5510000020AA
:101F7000680000200600FF0901A101150026FF00EE
:101F80000902750895408102150026FF00090375B6
:101F90000895409102C000001201000200000040BC
:101FA000D90401000001010200010000090229001A
:101FB0000101008032090400000203000000092131
:101FC00010012101222200070583034000010705BB
:101FD0000403400000000000040309040E0348004D
:101FE0004F004C00540045004B0000001803550002
:101FF000530042002D0048004900440020004900E1
:10200000410050004D180000811800002918000000
:1020100055190000D9080000791800004D1E000075
:102020008D1E0000BD190000111A00008919000062
:10203000291B0000410B0000F5190000B919000030
:10204000851900000D1B0000851900000202020125
:1020500001010103030101010C01020000400080A5
:10206000020000100200040000000B4000200B40A2
:1020700000400B4000600B4000000000000000002A
:1020800000000440000010000600000020000600D0
:10209000B02000001000002058000000EA1E0000E0
:1020A0000821000068000020900A0000FA1E0000CD
:1020B0000100000000000000D81F0000DC1F00002D
:1020C000EC1F000000000000000000000000000005
:1020D00088A00A400000000000000000000000008E
:1020E00000000000000000000000000001000000EF
:1020F00000000000000000000000000000000000E0
:082100000000000000000000D7
:020000040000FA
:0C2800000600000056312E302E32000081
:020000040000FA
:102A0000000E0020C12A0000F92A0000FB2A000065
:102A1000FFFFFFFFFFFFFFFFFFFFFFFFFFFFFFFFC6
:102A2000FFFFFFFFFFFFFFFFFFFFFFFFFD2A00008B
:102A3000FFFFFFFFFFFFFFFFFF2A0000C15900005B
:102A4000032B000021580000032B0000C5420000AA
:102A5000032B0000032B00000D430000032B00009C
:102A600075330000FFFFFFFF032B0000032B000066
:102A7000032B0000032B0000032B0000FFFFFFFFD0
:102A8000FFFFFFFF21390000032B0000032B000094
:102A9000032B0000032B0000032B0000E561000066
:102AA000032B0000032B0000032B0000032B00006E
:102AB000032B00007169000061550000032B00002A
:102AC0001048804710488047104800471048016967
:102AD000002910D1416900290DD1816900290AD14D
:102AE000C169002907D1BFF34F8F0A490A48C8605E
:102AF000BFF34F8FFEE77047FEE7FEE7FEE7FEE716
:102B0000FEE7FEE7CD2A0000395B00001D2B000028
:102B10000003084000ED00E00400FA050348854684
:102B200000F0C4FB00480047C1700000000E002008
:102B300030B50B46014600202022012409E00D4655
:102B4000D5409D4205D31D469540491B25469540DD
:102B500040191546521E002DF1DC30BD70B5002421
:102B60002546002801DA01244042002901DA012526
:102B70004942FFF7DDFFAC4200D04042002C00D0BC
:102B8000494270BD03460B439B0703D009E008C9C7
:102B9000121F08C0042AFAD203E00B780370401C0D
:102BA000491C521EF9D27047024670B54A40D30FF5
:102BB000DB0740002DD04A002AD0010E140E00027F
:102BC00012020919400A520A8418E50104465443C6
:102BD000000A120A2E045043A4194219200CC543BE
:102BE000AA18120C0125AD03521C521912047F3988
:102BF000240400D0521C104301D44000491EC2B22C
:102C00000C06C0092018401C4008802A02D003E0AE
:102C1000002070BD40084000002900DA0020184361
:102C200070BD70B502464A40D50F40004A00ED071E
:102C300040085208002814D0002A12D0C40DD30D29
:102C400041020120C0055202490A520AE41A091839
:102C500012187D34914201D3641C00E04900002C1D
:102C600001DA002070BD0023914201D3891A034389
:102C7000400849000028F7D100290AD0914202D12A
:102C80000121C90705E0914201D2012101E00121A2
:102C9000C943E005C018401900F068FA70BD000093
:102CA000F0B507460846584087B0C00F049048006A
:102CB0000E46590040084908BC1A884105D23846DA
:102CC00031461E4617460B46024658004008104340
:102CD0004CD0300D039040055900400D490D059032
:102CE000401A0290402872DA18030121000B0905EE
:102CF0000843019004980092002805D0019952429F
:102D00000020884100920190029840210A1A0199FE
:102D1000009800F0F7F905460C466B4607CB00F02B
:102D200012FAC0197141039A0E0D0023D7175640AD
:102D30001A467A40164344D0049A002A2DD0029AAB
:102D4000012A039A15DC1205C01A914101263605A5
:102D5000001C7141D20F059ED2070093019202968A
:102D60002A46234600F050FA07B0F0BD38463146F7
:102D7000FAE71605224A0F46B218C01AB7410121D8
:102D80000905001C4F4100187F4111461818794170
:102D9000E20F10436D19644113E0E2076D0815431B
:102DA0006408C2071443039A01261205C01A914110
:102DB0003605001C7141CE07400830434908C01851
:102DC00051412A46234600F012FACDE7FFE7049866
:102DD00001224000C117121A00238B41049831468A
:102DE000C417381AA141EEE730B40124E407634068
:102DF00030BC55E730B40124E407614030BC4FE7F4
:102E00000000E0FFF0B51FB488B00B9909980024CA
:102E100048400999C00F490049080991C0070B991A
:102E20000090490049080B9109990898A646084363
:102E30001CD00B990A98084318D009980124400027
:102E4000420D4800410D099824050003000B204362
:102E500009900B980003000B20430B9050181C495D
:102E60004018002201901446104605E0002001465B
:102E70000DB0F0BD032801DA034600E003239C46B1
:102E8000C11A0AAE0AE05F0008ADED5B4F00F75BC8
:102E90007D430027AA187C41491C5B1E6145F2DD79
:102EA000410004AB5A522104120C0A43240C401C6A
:102EB0000828DFDB0198029000997046019100908C
:102EC000059B049A0799069800F09EF9D0E7000048
:102ED0000DFCFFFFF0B50C465C4085B0E40FE40745
:102EE00003944C00002664085900944649080246A1
:102EF0000296224321D062460A431ED06200570D3B
:102F00004A000E032303550D012402462C492405D3
:102F1000781B1B0B360B4018234326436146009059
:102F20001C46501AB44103D30098401C009002E0A4
:102F3000921800985B41002803DA0020014605B092
:102F4000F0BD0020012109050746864611E06446D0
:102F50001D46141BB54106D36546521BB34174464A
:102F600007430C43A646CD0740084908284392185A
:102F70005B4105460D43EAD11046184313D0604625
:102F8000194650407140084306D06046101AB341BC
:102F900006D20122002306E000220123DB0702E023
:102FA0000122D2435310009874460105381C614138
:102FB000029C039D0019694100F019F9BFE7000068
:102FC000FD03000070B54B005B0803430BD04B00C2
:102FD0005C0D002633466542B341D417AD1AA341B8
:102FE00002DB0020014670BD12053018514170BD52
:102FF000C217C10F504010B54018CA0796230021D0
:1030000000F0BCF810BD10B500229623114600F068
:10301000B5F810BD0EB5C217C10F5040CA07401811
:103020000021054B0293019200910A460B4600F0E5
:10303000EBF803B000BD0000330400000EB50549F5
:103040000291002100910A460B46019100F0DCF844
:1030500003B000BD33040000410040020122400AD9
:10306000D205090E80187F2901DA002070479629C1
:1030700003DC9622511AC840704796398840704741
:1030800070B5CD0F4A0009030123090B1B05194335
:103090000B4BED070024520D9A4201DA002070BD5F
:1030A000074B34339A4203DC9A1A00F03BF802E0F3
:1030B0000449511888402C43F1D0404270BD0000B3
:1030C000FF030000CDFBFFFF4A0009030123090BAA
:1030D0001B051943094B10B5520D9A4201DA002025
:1030E00010BD064B34339A4203DC9A1A00F01AF8EA
:1030F00010BD03495118884010BD0000FF030000B7
:10310000CDFBFFFF10B5202A04DB0146203A914099
:10311000002010BD914020239C1A0346E340194330
:10312000904010BD10B5202A04DB0846203AD0405C
:10313000002110BD0B46D340D0402024A21A91405C
:103140000843194610BD10B5202A06DBCB170846E8
:10315000203A1041C1170B4306E00B461341D04003
:103160002024A21A91400843194610BD002904DA10
:10317000401C490001D140084000704770B4002451
:10318000050C05D11024000402D1002921D01124FE
:10319000050E01D100020834050F01D10001241DE4
:1031A000850F01D18000A41C002801DB4000641CB5
:1031B000002908D020252E1B0D46F540A14000D047
:1031C00001212943084301061B1B000ADB1D02D510
:1031D000002070BC7047DB05181880180029F8DA49
:1031E000401C4900F5D170BC40084000704710B544
:1031F000002B08DA0024401C614192185B411A43FD
:1032000001D14008400010BDF0B51FB482B00546A2
:103210000C0003D0084603F077FD02E003F074FDD4
:1032200020300246009021462846FFF76BFF049BA2
:10323000059A04460F4618431143084314D0184614
:1032400010431BD0009840210A1A18460599FFF731
:1032500069FF05460E46009A05990498FFF752FF4C
:10326000084305D0012004E02046394607B0F0BDF0
:103270000020C11705430E432C43374300990E9895
:103280006305401A7905E40A00220C43FD0A0A305E
:1032900002D500200146E9E70105101969410C9C9F
:1032A0000D9D00196941FFF7A2FFDFE7064C0125DC
:1032B000064E05E0E36807CC2B430C3C98471034DE
:1032C000B442F7D3FFF72EFC9C720000BC720000E2
:1032D00010B50021014800F044F810BD0000014085
:1032E00010B50121014800F03CF810BD000001407C
:1032F00010B5042000F004FD02222021002000F07F
:10330000A5F8104C01231A460021204600F06BF866
:1033100000220521204600F058F81021204600F038
:103320006FF801221146204600F046F801212046A0
:1033300000F017F80121204600F067F80249A015B7
:10334000086010BD0000014000E100E010B501215F
:10335000014800F05AF810BD000001408030C16003
:10336000704780220029016801D0114300E0914399
:103370000160704710B50D4C01212046FFF7EEFFAC
:10338000206B0B490005000D88608868094A90424F
:1033900008D20879401CC0B20871142801D301205A
:1033A000087010BD0020087110BD00000000014031
:1033B0001C0000207B0800008030002A026801D039
:1033C0000A4300E08A4302607047930810B59B00EF
:1033D000181843689207D20E1F249440A3439140CB
:1033E0000B43436010BD5B1E12021B04FF3A013AFF
:1033F00013430B430168802211400B430360704765
:103400000A06120F0267416770470029416F02D018
:103410000122114301E0490849004167704700005B
:1034200010B50022072802D901220838C0B2930043
:10343000054A9A18136880000F248440A3438140F2
:103440001943116010BD000000200240F0B59646FF
:103450000A461349C000461800230025FF20984063
:103460002C46104216D00020012199408C4611466E
:10347000C1406746394206D087000F21B9400D434D
:103480007146B9400C43401C0828F0D33068A8436B
:10349000204330600833361D082BDEDDF0BD000010
:1034A00020200240F0B51E4A02261146C97817783E
:1034B0000B18DDB201243B0003F03DFC06150409A6
:1034C0000F131F15EA2801D11670D070F0BD152812
:1034D00009D10320107015310DE004201070D57053
:1034E000F0BD092801D01470F0BD05201070002037
:1034F000567090700931D170F0BD93785678B34210
:1035000006D3814202D106494031CC70147000E0EC
:10351000D57003491A3158549078401C9070F0BD12
:10352000430900204F2070470549044BC868F0222A
:103530001A54401CC8604F2070470000DB08002070
:103540004000002070B51C480168012932D10026D6
:1035500006601A4C1A4D266020682918401C20600D
:10356000184800F002FB20684028F5D36C88EE7004
:10357000AE7040221249002000F0CEFB29780629C7
:1035800001D8844204D046240E4800F0D3FA0CE05F
:103590000120C04302F08CF92B780B4C9B00E358C0
:1035A0006878AA6869689847044606482146103832
:1035B00000F0EDFA70BD0000280000203C00002063
:1035C0004C080020F8030020D071000010B5442200
:1035D0000649074800F0B2FA0549012220310846A1
:1035E0009202103800F0AAFA10BD0000080800206E
:1035F000E8030020012009494007016008490860EC
:10360000002003F02DF80748401EFDD1BFF34F8F77
:1036100006490548C860BFF34F8FFEE7F5FAAA5583
:1036200080E100E0801A06000400FA0500ED00E0E9
:1036300006484188002902D04188491E418081887E
:10364000002902D08188491E8180704740000020F7
:10365000F8B50A27204C0026204D07E028780028DE
:1036600010D001281DD0022823D02E70012211462F
:10367000684601F0ADF80028F0D16888002800D134
:103680002E70F8BD68460078552804D0684600784A
:10369000FFF708FFF8BD20700120A86028706F8038
:1036A000E4E768460178A8682154401CA86002201D
:1036B000F4E7FF20F530688068460178A868215457
:1036C000401CA86061788142D0D802F009F82E70C1
:1036D0006420A880F8BD00008C0800204000002075
:1036E00010B501F091F802490120087010BD0000EA
:1036F0004309002001214907002814D00B48086025
:103700000B4C4F20A0700521204600F06BF861782B
:10371000204601F0D3F8BFF34F8F07490548C86032
:10372000BFF34F8FFEE70148401FE8E7F5FAAA55BF
:10373000DB0800200400FA0500ED00E000280FD0AF
:10374000084A012803D0022803D0462070471160A0
:1037500006E00649044BC86812781A54401CC86039
:103760004F20704714000020DB080020400000209C
:1037700010B51649EA20087015204870002088709E
:103780000D22CA70B0220A71114A12784A71114A88
:1037900012788A71104A1278CA71104A12780A7225
:1037A0000F4A12784A7288720B5C8A7A401CD218CF
:1037B000C0B28A720A28F7D3F520C8725F20087356
:1037C0000D21024802F094FD10BD000036090020D2
:1037D000B9000020BA000020E1000020E000002035
:1037E000E200002038B5044655202070881C0D46A4
:1037F0006070002320461946425C491CD218C9B2A9
:10380000D3B20429F8D3D843401C20712A4621465C
:10381000002000F081FA694608806019097801707B
:1038200069464978417038BD70B500228021012079
:10383000FFF70CFEFF240134002221460120FFF790
:1038400005FE294D01228021284600F013FE0122A9
:103850002146284600F00EFED02000F07BF85828C4
:10386000FAD1882000F093F8204CA0808A2000F044
:103870008EF8E0808C2000F08AF820818E2000F005
:1038800086F86081902000F082F8A081922000F0FC
:103890007EF8E081942000F07AF82082962000F0F3
:1038A00076F86082982000F072F8A0829A2000F0EA
:1038B0006EF8E0829C2000F06AF820839E2000F0E1
:1038C00066F86083B621E02000F084F8FF21F42040
:1038D00000F080F81C21F52000F07CF800F082FE5A
:1038E00003490120087070BD00200B4050000020EB
:1038F000E0000020AA2110B548436421FFF718F921
:10390000064900221346C0B208704B708B70521CDF
:10391000D2B2C91C482AF7D310BD00004A0A0020C1
:1039200010B509490020486008484168491C4160B9
:1039300001210170FFF77CFE05480168002902D0D3
:103940000168491E016010BD00600740EC000020C6
:103950001800002010B5044601F07EF8EE2001F0BA
:1039600047F801F0C5F8204601F042F801F0C0F830
:1039700001F072F8EF2001F03BF801F0B9F80020F7
:1039800000F0F8FF044601F08DF8204610BD70B538
:10399000044601F061F8EE2001F02AF801F0A8F8E1
:1039A000204601F025F801F0A3F801F055F8EF20CA
:1039B00001F01EF801F09CF8012000F0DBFF044646
:1039C000002000F0D7FF054601F06CF8280200192E
:1039D00000B270BD70B50D46044601F03DF8EE2012
:1039E00001F006F801F084F8204601F001F801F03A
:1039F0007FF8284600F0FCFF01F07AF801F052F859
:103A000070BD000010B5084C01220821204600F0CE
:103A10005BFD00220221204600F056FD0122042118
:103A2000204600F051FD10BD00400B4010B5084C81
:103A300001220821204600F047FD012202212046F4
:103A400000F042FD01220421204600F03DFD10BDA2
:103A500000400B4010B5084C00220821204600F021
:103A600033FD00220221204600F02EFD0122042118
:103A7000204600F029FD10BD00400B4010B5084C59
:103A800000220821204600F01FFD012202212046CD
:103A900000F01AFD01220421204600F015FD10BDA2
:103AA00000400B4070B5002208210220FFF7CEFC39
:103AB000022100220846FFF7C9FC0022042102204F
:103AC000FFF7C4FC194C01220821204600F0D2FC6B
:103AD00001220221204600F0CDFC012204212046D3
:103AE00000F0C8FC01220821204600F0EDFC012274
:103AF0000221204600F0E8FC01220421204600F0CB
:103B0000E3FC01220A4D94032146284600F0B2FC52
:103B100000222146284600F0D7FC0121032000F0B6
:103B2000EBFD0121002000F0E7FD70BD00400B40DF
:103B300000000B40002141600160704700230360DA
:103B40004360C26081607047F8B515460E4607466F
:103B5000002406E03119384600F007F8002802D0AA
:103B6000641CAC42F6D32046F8BD10B50446636829
:103B700000202268934209D0A068805C0870206809
:103B8000E168401CFEF7D4FF0120216010BD70B534
:103B90000E460446C16840680025401CFEF7C8FF79
:103BA0002068814208D06068A1680E54401CE1681A
:103BB000FEF7BEFF61600125284670BD41680068C0
:103BC000814201D1012070470020704710B5CF21FC
:103BD00003480902034A012300F07EF810BD0000EB
:103BE000100C07005001000103498968014201D00F
:103BF00001207047002070470080084070B5184DC4
:103C00000446686B4607760F00F02EF815492060D1
:103C1000330003F090F8081405070714140E11146C
:103C2000606000E06160296A6068052909D3400985
:103C300008E00120C003F3E77D200002F0E7002048
:103C4000EEE7C840A060A96A4903490F072902D0DE
:103C5000C840E06070BD0321FEF76AFFF9E700008D
:103C60000080084000127A000C490868C869C20F39
:103C70004868400AC007C00F0ED00948002A0BD17F
:103C80008869C00D0007000F00D110208969044A1F
:103C90004902890F5043C840704700000080084027
:103CA00000127A001FB541090A4A89008A180021CA
:103CB0002E2800D10221C006C00E126803238340C3
:103CC0001A40C24054186846FFF798FF029804B0A3
:103CD000E04010BD38800840F0B5084F7C6AFD6AAE
:103CE0003E6B84438D439643002B02D004430D4327
:103CF00016437C62FD623E63F0BD00000080084018
:103D000004498A6A07231B049A43000402438A6217
:103D10007047000000800840F0B59446002615E08A
:103D20008B5D020A5A40140200230A4F08252246DE
:103D30005A40120402D55B007B4000E05B00640047
:103D40006D1EF4D10002434098B2761C6645E7D35D
:103D5000F0BD000021100000F3B540488BB007C84B
:103D600003AD07C500266C460C3D287820702978E5
:103D700000290ED0FFF747F907460B98FFF743F9E4
:103D80003946FEF711FF3649FEF74BFFFFF764F99E
:103D90002070761CF6B2641C6D1C0C2EE5D36946AF
:103DA00030480978817069464978C1706946097957
:103DB00001716946097AC1716946497A417169465A
:103DC000C97A81710C98012846D0274D0026B0078A
:103DD000800F410044186F460990385D0621FEF7B8
:103DE000A7FEFFF710F9E4190A9060780621FEF7A4
:103DF0009FFEFFF708F90890A0780621FEF798FECD
:103E0000FFF701F907900024062037464743601C5E
:103E1000FFF7F9F806900A99FEF7C6FEFFF71CF9BE
:103E2000287008990698FEF7BFFEFFF715F968702D
:103E300007990698FEF7B8FEFFF70EF9A8703A1931
:103E40000A49641C0998E4B2ED1C8854062CDED3A0
:103E5000761CF6B20C2EBAD30DB0F0BD287200005D
:103E60000000C842980000204A0A0020EE08002006
:103E7000F1B53C488AB003C803AD03C500266C46C3
:103E8000083D28782070297800290ED0FFF7BBF86C
:103E900007460A98FFF7B7F83946FEF785FE32491C
:103EA000FEF7BFFEFFF7D8F82070761CF6B2641C50
:103EB0006D1C062EE5D369462C4809788172694647
:103EC0004978417269468978017269464979284D75
:103ED000C1710026F007C00F410044186F460890DA
:103EE000385D0C21FEF724FEFFF78DF8E4190990E8
:103EF00060780C21FEF71CFEFFF785F80790A0788C
:103F00000C21FEF715FEFFF77EF8069000240C202A
:103F1000374647430C20001BFFF76AF805900999C4
:103F2000FEF742FEFFF798F8287007990598FEF70C
:103F30003BFEFFF791F8687006990598FEF734FE8E
:103F4000FFF78AF8A8703A190A49641C0898E4B285
:103F5000ED1C88540C2CDDD3761CF6B2062EB9D39A
:103F60000BB0F0BD147200000000C84298000020A1
:103F70004A0A0020EE080020F1B53F488CB007C87F
:103F800003AD07C500266C460C3D287820702978C3
:103F900000290ED0FFF737F807460C98FFF733F8E3
:103FA0003946FEF701FE3549FEF73BFEFFF754F8B0
:103FB0002070761CF6B2641C6D1C0C2EE5D369468D
:103FC0002F480978817069464978C1706946097936
:103FD00001716946897981726946C9794172694678
:103FE000097A284D01720026B007800F410044185D
:103FF0006F460990385D0621FEF79AFDFFF703F83A
:10400000E4190A9060780621FEF792FDFEF7FBFFA7
:104010000890A0780621FEF78BFDFEF7F4FF0790CD
:104020000024062037464743601CFEF7ECFF06904D
:104030000A99FEF7B9FDFFF70FF82870089906985E
:10404000FEF7B2FDFFF708F8687007990698FEF7CB
:10405000ABFDFFF701F8A8703A190B49641C0998E9
:10406000E4B2ED1C8854062CDED3761CF6B20C2E7E
:10407000BAD30DB0F0BD0000407200000000C8428D
:10408000980000204A0A0020EE080020F1B52848D8
:1040900086B007C803AE07C600256C460C3E3078D4
:1040A000207000280ED0FEF7AEFF07460698FEF7F8
:1040B000AAFF3946FEF778FD1E49FEF7B2FDFEF76E
:1040C000CBFF20706D1CEDB2641C761C0C2DE6D36A
:1040D000694619480978817069464978C17069460E
:1040E000897941711548164B00229707BF0F7C0054
:1040F0003D1900216C462C196E46765D0670667877
:104100004670A67886701F70C01C5B1CD60701D055
:10411000022903D0491CC9B20529EDD3521CD2B2E1
:10412000122AE2D304480021017007B0F0BD00005C
:104130001C7200000000C842980000204A0A0020BB
:10414000EE080020F1B53F488CB007C803AD07C5A5
:1041500000266C460C3D28782070297800290ED066
:10416000FEF751FF07460C98FEF74DFF3946FEF764
:104170001BFD3549FEF755FDFEF76EFF2070761CDE
:10418000F6B2641C6D1C0C2EE5D369462F480978E5
:10419000817069464978C1706946097A0172694639
:1041A000897981726946C979417269464979284D90
:1041B000C1710026B007800F410044186F46099076
:1041C000385D0621FEF7B4FCFEF71DFFE4190A90E6
:1041D00060780621FEF7ACFCFEF715FF0890A0788A
:1041E0000621FEF7A5FCFEF70EFF0790002406202F
:1041F00037464743601CFEF706FF06900A99FEF714
:10420000D3FCFEF729FF287008990698FEF7CCFC2E
:10421000FEF722FF687007990698FEF7C5FCFEF7C7
:104220001BFFA8703A190B49641C0998E4B2ED1CF5
:104230008854062CDED3761CF6B20C2EBAD30DB001
:10424000F0BD0000347200000000C8429800002059
:104250004A0A0020EE08002070B50546AA2148430E
:104260006421FEF765FC0446552068436421FEF78F
:104270005FFC054606490022E0B21346ECB2087026
:104280004B708C70521CD2B2C91C482AF7D370BD37
:104290004A0A002030B5094B094C00204100411862
:1042A0005A5C6254CA18091955784D70401C9278AE
:1042B000C0B28A704828F1D330BD00004A0A0020FD
:1042C000220B002010B5052000F05EF80E4C0028EF
:1042D00009D000220121052000F080F8052000F01F
:1042E0003DF8012020700C2000F04EF8002809D085
:1042F000002211460C2000F071F80C2000F02EF87E
:104300000220207010BD0000E600002070B50C20D7
:1043100000F02EF8002802D00C2000F017F804203E
:1043200000F026F80125084C002803D0042000F0F6
:104330000DF86570052000F01BF8002803D005205B
:1043400000F004F8257070BDE400002001218140D8
:104350000148416081607047404002400121814036
:1043600002488161BFF34F8F704700004040024018
:104370000449496801228240114201D0012070475E
:104380000020704740400240044989690122824070
:10439000114201D001207047002070474040024088
:1043A0000179027AC90712071143C28800681143D4
:1043B000024A8000801801607047000000400240FF
:1043C0000122054B82401868012902D090431860F1
:1043D00070471043FBE700004040024010B5012346
:1043E000084C8340012A02D02069984306E06069A6
:1043F000002905D01843606120691843206110BD71
:104400009843F8E74040024005490128086903D075
:1044100040004008086170470122D2071043F9E7C5
:104420004040024010B5002001F066FAFEF750FF50
:10443000012211460E4800F047F800F05FFC02F040
:10444000A7FA012211460520FFF7C8FF012200212B
:104450000C20FFF7C3FF0120FFF7D6FF012001F07A
:1044600011F9FEF73DFF012001F046FA10BD0000F2
:1044700000000B40002A026801D00A4300E08A4392
:1044800002607047002A426801D00A4300E08A4374
:1044900042607047002A08D0012A09D082688A4306
:1044A0008260C2688A43C260704782680A43F7E745
:1044B000C2680A43C26082688A4382607047C069EA
:1044C000084000D001207047002A01D041627047A7
:1044D0008162704770B5254E88B0304601F0C6FB4A
:1044E00001F0F2FA234822490068FEF721FB224935
:1044F00048437D21C900FEF71BFB00246946069452
:1045000008824C828C8304A9304601F035FC694650
:104510000C700620488001250D714C818C718C81B6
:10452000304601F0CFFB69460D70304601F0CAFB02
:1045300001220021304601F087FB0122114630465E
:1045400001F082FB09488030C46181150748403082
:104550008163304601F084FB21210122C9043046E9
:1045600001F002FC356108B070BD000000E00640BB
:1045700040420F00F4000020E204000000B587B0C4
:1045800015480090154801901820029001200390D2
:10459000042004900320000205906320400106904F
:1045A0006946012001F016F801200D4980070860D6
:1045B00001220921002001F033F8012209211046CF
:1045C00001F02EF80121002001F01AF8012108461F
:1045D00001F016F807B000BD180A002090E0064070
:1045E00000E100E00148416A81627047500000200C
:1045F000F8B51F4E0024371D751E08E0002C06D0AC
:10460000012C25D0022C26D0032C09D125E0012134
:1046100009031848FFF753FF002817D0002028701F
:10462000134A28780832115D81421BD0315D491C44
:10463000C9B231550A2904D9002816D002213955AA
:104640001055641C2406240ED8D0F8BD0120E6E7DE
:104650001021094803E0202100E010210548FFF760
:104660002EFFDCE700203055EBE70121E7E70000F3
:10467000A700002000200B4000400B4070B502F066
:1046800077FB134CE1694018E061216A491C216203
:104690000A291BDB0A21FEF761FA00116062A16A98
:1046A000002581420FDD081AC0B2A0700C280BD97A
:1046B0002078002808D107480078012804D120700C
:1046C000FFF7E8FD00E0A570E561256270BD000020
:1046D00050000020E00000200649095C8A000549DE
:1046E0001C3189580A6A034B40001633185A42405D
:1046F0000A6270474C720000F3B5044632483249F2
:10470000065D60002E310D5AB00018390F5883B085
:10471000304602F067F92C482946401D025D3046BC
:10472000FEF794FE294602223846FFF7B3FE2946DB
:1047300000223846FFF79EFE294601223846FFF741
:10474000A1FE049801283CD10025C10300950195E4
:1047500001232A4628460295FFF7BEFA1A4F314632
:104760000A37385DFEF75CFE385D009068460571DB
:10477000C580002C18D00320694608726846FFF7F0
:104780000FFE385D0121FFF71BFE385D0F49002841
:104790000CD001280AD002280DD003280BD04020CD
:1047A00008600F2106200AE00220E5E710200860DB
:1047B0000F21042003E0202008600F21052000F0D5
:1047C0000DFE05B0F0BD00005272000000E100E0F7
:1047D000F7B500247D2715460E46FF00321B094819
:1047E0000099FFF7B1F9001984B2B44207D23846F4
:1047F00001F058F828466D1EADB20028EED12046D3
:10480000FEBD0000D8030020FEB5FF2500240135C1
:1048100041210902280201232246FFF75DFA062200
:1048200004210020FEF712FE062208210020FEF7D8
:104830000DFE002208211548FFF72CFE14496A00DE
:104840008818FFF77BF9AE05304601F0DDFCE1206A
:1048500040020090684685800481C4804481694696
:10486000304601F0F9FC01221146304601F036FDD8
:1048700001220021304601F051FD0122114630464F
:1048800001F04CFD0349E8030860FEBD00000B4049
:10489000D801002000E100E007498A06106004E02A
:1048A0001069C00501D5012070470846491E89B22C
:1048B0000028F5D1704700001027000030B50D46E4
:1048C0000446002306E0E05CFFF7E6FF002803D083
:1048D0005B1C9BB2AB42F6D3184630BD70B5114C91
:1048E000002280212046FFF7EFFD01221502294614
:1048F0002046FFF7BFFD002229462046FFF7E4FDD2
:10490000022002F0ABFB012280212046FFF7DCFDF4
:10491000022002F0A3FB002280212046FFF7D4FDF5
:1049200070BD000000200B4070B5114C00228021AA
:104930002046FFF7C9FD0122150229462046FFF750
:1049400099FD012229462046FFF7BEFD022002F014
:1049500085FB012280212046FFF7B6FD022002F0F0
:104960007DFB002280212046FFF7AEFD70BD0000D8
:1049700000200B40F1B5FF271C4E002401372246D2
:1049800039463046FFF776FD012239463046FFF7BB
:1049900079FD0025002280213046FFF795FD022099
:1049A00002F05CFB012280213046FFF78DFD0220E2
:1049B00002F054FB6006040E39463046FFF77FFDD7
:1049C000002801D0641CE4B2012002F047FB6D1CFA
:1049D000EDB2082DDED30098002803D0FFF77EFF4C
:1049E0002046F8BDFFF7A0FFFAE7000000200B40CB
:1049F000F8B50122174E0546170239463046FFF733
:104A000039FD002280213046FFF75EFD0024E809D1
:104A100001D0012200E0002239463046FFF754FD64
:104A20006806050E022002F019FB012280213046A3
:104A3000FFF74AFD022002F011FB002280213046E0
:104A4000FFF742FD022002F009FB641CE4B2082CCF
:104A5000DDD3F8BD00200B4070B50122104D1402CB
:104A600021462846FFF730FD012280212846FFF726
:104A70002BFD012221462846FFF7FCFC042002F012
:104A8000EDFA002221462846FFF71EFD042002F021
:104A9000E5FA002280212846FFF716FD70BD0000D0
:104AA00000200B4070B50122104D1402214628460B
:104AB000FFF7E0FC002280212846FFF705FD0022D9
:104AC00021462846FFF700FD042002F0C7FA012224
:104AD00080212846FFF7F8FC012221462846FFF7EF
:104AE000F3FC042002F0BAFA70BD000000200B4075
:104AF00070B5FF25194E002401352246294630465F
:104B0000FFF7B8FC012229463046FFF7BBFC012223
:104B100029463046FFF7D8FC012002F09FFA012217
:104B200080213046FFF7D0FC012002F097FA07E021
:104B3000641CE4B2FA2C03D9FFF7B4FF012070BD66
:104B400029463046FFF7BBFC0128F1D00022802126
:104B50003046FFF7B9FC002070BD000000200B407C
:104B600070B5002202211046FEF770FC134C0022A3
:104B700002212046FFF77EFC002201211046FEF7AD
:104B800065FC012211462046FFF774FC002201213A
:104B90002046FFF799FC0122140321461046FEF738
:104BA00055FC074D002221462846FFF763FC0122F1
:104BB00021462846FFF766FC70BD000000000B4050
:104BC00000200B4007480022026104214161016975
:104BD000C829FCD3032141610169C829FCD3C270F3
:104BE00070470000B8000020F8B504221021002012
:104BF000FEF72CFCFFF76EFCFFF7C0FC1A4A0024FE
:104C0000184E1746B4726037B57A6800145281188E
:104C10000C860B4640331C8414520C861C843C5278
:104C2000114B0F21903319526D1CE8B2B072182845
:104C3000EAD3FFF7C7FFB078F072FEF7FFF90B4A2F
:104C40000B4BFEF7DFF8FEF73FFAC0B2B07074709E
:104C500008497162D839316200F00EF8FFF7C2FCE2
:104C6000F8BD0000B80000208A0900209A9999999F
:104C70009999E93F220B002070B51E494978032914
:104C800018D006DC00290BD001290DD002291DD136
:104C90000DE0042911D0052912D00F2916D112E0F8
:104CA0000021FFF759F811E0FFF7E2F80EE0FFF7F7
:104CB00063F90BE0FFF7EAF908E0FFF743FA05E0D4
:104CC000FFF7CAFA02E06420FEF714FE0A4D002046
:104CD0002E46D836410041184B198A199C78947099
:104CE0005B785370401C6A5CC0B272544828F1D3A0
:104CF00070BD0000B80000204A0A002010B5012154
:104D0000002289030148FFF7DFFB10BD00000B40C4
:104D100010B5012291030248FFF7D6FB10BD000039
:104D200000000B40FCB50023574EA7E058001F18A9
:104D30005648574D0068C15D3A1801928646507832
:104D4000EC5C9278002C06D0012C2AD0022C4AD0A0
:104D5000032C33D16BE0002A09D0521ED2B2B478B2
:104D6000A1422BD1F478A0427ED101247BE0B4781B
:104D7000A446A14201D2491CC9B2614501D2491CD5
:104D8000C9B2F4780094A04201D2401CC0B261457F
:104D900001D9491EC9B2009CA042E0D9401EC0B250
:104DA000DDE700290BD0491E0906090E01D0491E76
:104DB000C9B23479A04257D1002912D054E03479D5
:104DC000A04201D2401CC0B2A04201D2401CC0B2DD
:104DD000A04201D2401CC0B2A042EAD9401EC0B2DB
:104DE000E7E702243FE0F479A24201D2521CD2B29A
:104DF000A24201D2521CD2B2A24201D2521CD2B261
:104E0000A24202D9521ED2B20BE0002809D0401EA5
:104E10000006000E05D0401E0006000E01D0401E08
:104E2000C0B2A24220D100281ED103241BE0B479D5
:104E3000A446A24201D9521ED2B2624501D2521CEE
:104E4000D2B27479A14201D2491CC9B2A14201D2A5
:104E5000491CC9B2A14201D9491EC9B2A14203D11C
:104E6000624501D10024EC547446E1550199074D87
:104E70004870286838185B1C8270DBB205480078DF
:104E8000834200D252E7FCBD98000020D8000020E9
:104E9000EE080020B8000020F0B500202E4F2F4E65
:104EA00054E0410043182E490968CC5C8E465918DD
:104EB000F4724A788C463273897871733D5C002DA8
:104EC00002D0012D35D11EE0B57AAC4201D2641C6E
:104ED000F472347AA14201D2491C7173717A8A4208
:104EE00001D2521C3273727BA24201D9521E7273DC
:104EF000F27AAA421DD1327B8A421AD1717BA14239
:104F000017D1012114E0F579A94201D2491C71732E
:104F1000002C01D0641EF472002A01D0521E32739C
:104F2000D1B2E2B2114304D1717BA94201D1002177
:104F30003954F17A7446E154094A317B6446617010
:104F40001268717B9A18401C9170C0B205490978AB
:104F50008842A6D3F0BD0000EE0800209800002093
:104F6000D8000020B8000020F0B500204A4C4B4B80
:104F70008BE0410045184A4909684A5D6E188E4623
:104F8000DA727178B4461973B6785E73275C002FB5
:104F900006D0012F22D0022F36D0032F68D152E045
:104FA000002E0BD0761E5E73D97A9A7891425FD12B
:104FB000197BDA7891425BD1012158E09E78B242A8
:104FC00001D2521CDA72D2B2B24201D2521CDA724F
:104FD000DA789142E8D2491C1973E5E71E79B142AB
:104FE00001D2491C1973C9B2B14201D9491E1973C2
:104FF000002A01D0521EDA72C9B2B14238D111066C
:10500000090E35D1022132E09F7ABA4201D2521CF8
:10501000DA725A7A914201D2491C1973197A8E4276
:1050200001D2761C5E731E7B964201D9761E1E73DA
:105030005E7B8E421CD1197B914219D1D97AB9423B
:1050400016D1032113E01E79B14201D2491C197314
:10505000C9B2B14201D9491E1973002A01D0521EAA
:10506000DA72C9B2B14203D11106090E00D121543E
:10507000D97A764671550A4A197B6646717012686C
:10508000597BAA18401C9170C0B206490978884221
:1050900000D26EE7F0BD0000EE080020980000206E
:1050A000D8000020B8000020F8B5364A0024157852
:1050B00054E0E0004019C2B233480078824204D381
:1050C00048211046FDF734FD0A46500016182F48B7
:1050D0000368F1188C46985D4978E70705D00028E9
:1050E00001D0401EC0B298550EE0002901D0491EE3
:1050F000C9B2002805D0401E0006000E01D0401E97
:10510000C0B29855604641701F49521D0978D0B20F
:10511000884203D34821FDF70BFD084641004318A0
:105120001A48026899188C46E607D05C4978154EF3
:1051300001D0B67809E0F778B94201D2491CC9B26A
:10514000B678B04201D2401CC0B2B04201D2401C7D
:10515000C0B2D0546246641C5170E4B20A4B1A7853
:10516000D208A242A5D8074CA278904208D1E07894
:10517000814205D16D1CE8B24821FDF7D9FC2170B0
:10518000F8BD000098000020B8000020D8000020E2
:10519000FCB500234E4C95E058001E184D484E4D6E
:1051A00001688E46885D711801914A78EF5C8978B4
:1051B000002F06D0012F2FD0022F47D0032F77D1F9
:1051C00060E0A778002917D0B84201D2401CC0B2D5
:1051D000B84201D2401CC0B2E778BA4201D2521C98
:1051E000D2B2491EC9B2A778B84261D1E778BA42B3
:1051F0005ED100290ED05BE0B84201D2401CC0B2A3
:10520000B84201D2401CC0B2E778BA42EBD2521C7D
:10521000D2B2E8E701274AE000280CD0401E000681
:10522000000E01D0401EC0B2002A0AD0521ED2B2D7
:10523000002A06D03CE0E779B942F9D2491CC9B24C
:10524000F6E7E779B94233D1022730E0277ABC4646
:10525000B94201D2491CC9B2614501D9491EC9B23E
:10526000A77AB84201D2401CC0B2677A0097BA420E
:1052700001D2521CD2B261451AD1009FBA4217D155
:10528000032714E0002808D0401EC0B2002A0AD02C
:10529000521ED2B2002A06D00AE0E779B942F9D20A
:1052A000491CC9B2F6E7E779B94201D10027EF54AA
:1052B0007546A8550198074F4270386830185B1C36
:1052C0008170DBB205480078834200D264E7FCBD00
:1052D00098000020D8000020EE080020B800002030
:1052E000F0B5012000212E4F55E02E4C6278012AA6
:1052F00002D0022A23D04CE04A003B688A189D5C09
:10530000032D02D8401CC0B201E06D1E9D54D5187B
:105310006B78032B02D8401CC0B201E05B1E6B709F
:105320003B68D3189A78032A02D8401CC0B201E027
:10533000521E9A70D9282CD30222627029E04A00AA
:105340008A183B68184D9C5CAE5CB44202D2641C67
:105350009C540020D418551963786E78B34202D259
:105360005B1C637000203B68AC78D3189A78A2422B
:1053700002D2521C9A7000200C4A1278521E91429E
:1053800007D1012805D10A4B00221A70054A0123D2
:105390005370491CC9B2054A12789142A5D3F0BD99
:1053A000D800002098000020220B0020B800002028
:1053B0005000002070B50446FEF7CCFA0646601C8B
:1053C000C0B2FEF7C7FA0546A41CE0B2FEF7C2FA67
:1053D0003204290211430143081170BD8307FF22E3
:1053E000DB0E9A408907090E994000280BDA000766
:1053F000000F0838830808489B001818C3699343B6
:105400000B43C3617047830804489B001818036866
:1054100093430B430360704700ED00E000E400E0BD
:10542000024A1140014302488160704780FFFF1F1C
:1054300000ED00E010B50B0601D52D2400E00F248F
:10544000464B1B68DC854C0601D52D2400E00F245B
:105450009C858C0601D52D2400E00F245C85CC06AC
:1054600001D52D2400E00F241C850C0701D52D2427
:1054700000E00F24DC844C0701D52D2400E00F242C
:105480009C848C0701D52D2400E00F245C84C9077F
:1054900001D02D2100E00F211984010601D52D2115
:1054A00000E00F21D983410601D52D2100E00F2115
:1054B0009983810601D52D2100E00F215983C10672
:1054C00001D52D2100E00F211983010701D52D21E0
:1054D00000E00F21D982410701D52D2100E00F21E5
:1054E0009982810701D52D2100E00F215982C00743
:1054F00001D02D2000E00F201882100601D52D20AC
:1055000000E00F20D881500601D52D2000E00F20AB
:105510009881900601D52D2000E00F205881D006FB
:1055200001D52D2000E00F201881100701D52D2076
:1055300000E00F20D880500701D52D2000E00F207B
:105540009880900701D52D2000E00F205880D007CB
:1055500001D02D2000E00F20188010BDD4000020C5
:105560001548016AFF222132114224D0811581623F
:1055700012490A6800231248012A09D00A68022A3F
:1055800008D00A68032A0AD00A68042A0BD00EE061
:105590000C4A01E00B4A3032C2610B6007E00A4A54
:1055A000C261032002E0094AC26104200860084881
:1055B0000168491C0160704700010940CC000020CF
:1055C00000000940B8090020180A0020480A0020FD
:1055D000C800002018225043084A4B6980180A6905
:1055E0001A438B691A4302600A6842604A68826003
:1055F0000A89C96812040A43026170470000094021
:1056000018225043054A80180029016802D001225F
:10561000114301E04908490001607047000009405A
:1056200010B58400054B00198140186B002A01D089
:10563000084300E08843186310BD000000010940E2
:10564000084A074801211160074902E08A68272AB1
:1056500003D0401EFAD1012070470020704700009F
:1056600000366E010083084000A106400448012175
:10567000416041680029FCD101680029FCD17047D4
:1056800000A1064070B5134A116B4906CB0F116B90
:1056900040242143116310494D688026B5434D6075
:1056A0004D680826B5434D600C490E6904252E430C
:1056B0000E61002B02D1136BA3431363002804D0A7
:1056C00030BF0869A843086170BD40BF20BF20BF3C
:1056D000F7E700000080084000A1064000ED00E070
:1056E000FEB5214F214C0520F86000202546E070D2
:1056F0004F3D6A78A8181E38417F007F0E0206438E
:1057000029460020921EFEF707FBA978502901D3F5
:105710004639A9702946AD78462201230B2D01D8C0
:10572000864202D0A270E37014E0CE78042201A871
:10573000491D0096FDF726FA0C490422463902A8B5
:10574000FDF720FA0A4BA8001B583046029A01992F
:105750009847A070397B0548FEF744F86178034804
:10576000FFF7ACF8FEBD000040000020DB08002081
:10577000E8710000F0B5084F7C68BD68FE6884439E
:105780008D439643002B02D004430D4316437C60A7
:10579000BD60FE60F0BD00000081084003498A68DA
:1057A00002239A43400002438A60704700A00640EB
:1057B00005490028886802D00122104301E0400812
:1057C000400088607047000000A0064010B5FFF759
:1057D00037FF002800D0FEE7FFF748FF002000F069
:1057E00039F82020FEF700FA0028FAD00020FFF751
:1057F000D5FF0F20000200F03DF8FF2000F034F844
:105800000120FFF7D5FF01200021400200F03EF803
:1058100010BD00000148C068C0B2704700A006403B
:1058200010B5FFF7F7FF094909484A79002A09D05E
:1058300000224A7101220221FEF746FE0020FEF7F7
:105840004BFF10BD01224A710022F4E71C0000202A
:1058500000400B4003498A6820239A4340010243D9
:105860008A60704700A00640014948607047000008
:1058700000A00640034A9168034B19400143916020
:105880007047000000A00640FFF00000044A002915
:10589000116901D0014300E08143116170470000AC
:1058A00000A0064018214843401EFDD2704700006A
:1058B0000749002806D00128086906D040084000A2
:1058C0000861704700208861704701221043F7E7A4
:1058D00000E000E0044902220028086901D01043DA
:1058E00000E090430861704700E000E00149486132
:1058F0007047000000E000E010B50F49EA220A708E
:1059000015224A7000228A700923CB7030230B7154
:1059100048718A7110460B5CD2B2D218401CC0B2DA
:105920008A710728F7D3F520C8715F200872092112
:10593000014800F0DDFC10BD3609002001490120BE
:1059400048707047E600002010B51B48006800282A
:1059500031D000210C20FEF733FD184800F04EFD39
:105960000446012807D1012211460C20FEF736FD1E
:105970000C20FEF7F3FC0C20FEF706FD012802D0F8
:10598000012C09D010E0012C0ED10C4800F0FAFDDA
:10599000012801D100F01BFE002201210C20FEF79E
:1059A0001DFD0C20FEF7DAFC0C20FEF7CFFC0121D8
:1059B0000C20FEF705FD10BD1000002000010020A6
:1059C00070B5FDF735FE31480024C288511CC180F6
:1059D0000121642A2AD32E4AC4802E4D11702A88B0
:1059E000002A09D02C4B1B88FF2B05D02B4B1B7892
:1059F0000F2B01D0521E2A80294A2A4D14702B7871
:105A0000012B01D12C701170274B1D78012D02D173
:105A10001C70022313700378012B01D10323137030
:105A2000224A1378224A012B18D014708278521C13
:105A3000D2B28270042A23D31E4A4170117084703E
:105A4000C2781D4B521CD2B2C2701B781B4D3C2B2E
:105A500014D8282B06D3022A10D211E013785B1C2D
:105A60001370E3E71E2B02D3032A07D208E0142B9E
:105A700002D3052A02D203E00A2A01D32970C47096
:105A80000F4801700F48017070BD00001C0000201D
:105A9000B4000020C6000020C4000020B90000208F
:105AA000E3000020E4000020E5000020E7000020E3
:105AB000E9000020C0000020BA000020C100002042
:105AC000B3000020B500002030B5184D286AA96940
:105AD0004007400FC90D18D0A969CA0DA96949022C
:105AE0008B0F696B124C4907490F01290FD0114ADE
:105AF000022915D0032913D0062914D0072903D170
:105B00007D210902C140216030BD1022E6E7E9692C
:105B1000002901DA01220023296806494A43DA40B4
:105B2000C240226030BD0121C903EBE7008008407C
:105B3000F400002000127A00F0B53B48016B1022FF
:105B4000114301633A49394A0A618A6805231205FB
:105B5000120D1B03D2188A60364A4A60364A0A6020
:105B6000364A01211160016B40242143016334490D
:105B70008A68272AFCD1416A03229202914341623A
:105B800041680122D202114341608168C908C907F6
:105B9000FBD04168C908C900C91C4160416B490775
:105BA000490F0329FAD1274B1968C908C900491CB4
:105BB00019600025056241685E15B14341600168C6
:105BC0009F153943016041681A151143416081688E
:105BD0008908C907FBD0016BA14301630168B94380
:105BE0000160032109068161416831434160816898
:105BF0004908C907FBD01968C908C900891C196080
:105C000005624168C908C900491C4160416B4907E8
:105C1000490F0129FAD11868102108431860186843
:105C2000090208431860F0BD00800840CA35000032
:105C300000800640D0A701000100A05F008308405B
:105C400000A10640000208408900081810214030D9
:105C5000002A026801D00A4300E08A4302607047CC
:105C6000C943C167BFF34F8F704700000022104B3C
:105C700010B51146984201D1821514E00D4B98429F
:105C800001D142150FE00C4B984201D101220AE0EC
:105C90000A4B984202D10122120704E0084B9842B5
:105CA00001D10122520701230846FFF763FD10BD11
:105CB00000E0064000F0064000C002400040034003
:105CC00000400740F0B50C78A200121815461346A4
:105CD000A0329035944662064033AE46120E03243D
:105CE0009440204DE443A84202D001249440E44370
:105CF0001C4E056D25400565456D2540B0428E79E9
:105D000002D1CF797F003E4396402E434665154F22
:105D1000B84208D1C66E4D7A26400C7A6D002C43ED
:105D200094403443C4661C68FF250835AC431C60AE
:105D30001C684D882C431C604C8973461C608C8900
:105D400063461C60B84206D10B79497949000B4380
:105D50009340016D02E0036D097991400B430365A7
:105D6000F0BD000000C00240002A426F01D00A438B
:105D700000E08A434267704710B502460B888032C4
:105D800093604B885360036803242404A343036097
:105D9000036801242406A343036003688C6823433B
:105DA0000360044B984201D10B79D36089898167E4
:105DB00010BD000000C0024010B50B0601D52D2318
:105DC00000E00F23464CE3854B0601D52D2300E070
:105DD0000F23A3858B0601D52D2300E00F236385B8
:105DE000CB0601D52D2300E00F2323850B0701D51A
:105DF0002D2300E00F23E3844B0701D52D2300E082
:105E00000F23A3848B0701D52D2300E00F23638488
:105E1000C90701D02D2100E00F212184010601D501
:105E20002D2100E00F21E183410601D52D2100E065
:105E30000F21A183810601D52D2100E00F2161836F
:105E4000C10601D52D2100E00F212183010701D5D5
:105E50002D2100E00F21E182410701D52D2100E035
:105E60000F21A182810701D52D2100E00F21618240
:105E7000C00701D02D2000E00F202082100601D5A0
:105E80002D2000E00F20E081500601D52D2000E0FC
:105E90000F20A081900601D52D2000E00F20608109
:105EA000D00601D52D2000E00F202081100701D55C
:105EB0002D2000E00F20E080500701D52D2000E0CC
:105EC0000F20A080900701D52D2000E00F206080DA
:105ED000D00701D02D2000E00F20208010BD000051
:105EE0008A09002010B50E48017800290DD0002144
:105EF0000170FDF72BFA0B480078012806D0022824
:105F000007D0032808D0FDF791FD10BDFDF7A2FDD5
:105F100010BDFDF777FD10BDFDF7B0FD10BD000011
:105F2000B4000020E300002070B52148007800286C
:105F30003CD02048C178012938D100250246C570DF
:105F4000403A947E4038A03CC07E1B49230000F0BC
:105F5000F2FE050408181D252B00184A401E10707B
:105F60000BE0642801D96420D076D07E144A0870F2
:105F70001070052801D2052008700878FEF77CFE15
:105F800012E0FEF71FFEFEF74DFA0DE00D49012865
:105F900001D00D7008E00120087005E00A490201F7
:105FA000101A088009490880FDF7E2FB70BD000067
:105FB000B500002083090020BA000020B9000020AD
:105FC000C3000020E0000020C4000020C600002024
:105FD00010B50C480178002910D000240470FEF799
:105FE00007FBFEF74BFB084808490078097808438F
:105FF00007490978084302D00648047010BDFFF72E
:106000009DFC10BDB3000020BB000020E400002078
:10601000E5000020E7000020F8B55E4C207A00285B
:106020007DD000275C4827720178012914D10770C0
:10603000FEF7D8FAE078012815D02771FEF768FE40
:10604000002201215548FEF73FFA0120E070A089A7
:10605000E081A078FEF710FEE078012862D1E089A7
:10606000002806D011E0FEF7ADFD4D490120087073
:10607000F2E7A0894B49884207D0E0816078E0715F
:106080000F206070A078FEF7F7FD4248006A827822
:1060900041780078FFF790FE01240025424E1AE077
:1060A000076144614169A142FCD0E9071ED03E4925
:1060B000866130390124C16101786D1C8D4209D29D
:1060C000E9B24A00006A8B1819188A784978C05CCE
:1060D000FFF7B0F9EDB22F4801788D42E0D32D4C97
:1060E00003206061607A002809D105E02E49C6616D
:1060F000303902248161DFE760780F2812D12B4804
:106100006772007801280ED0607803282ED00DDC4D
:10611000002825D0012826D0022803D100E001E084
:10612000FEF722FFF8BDFFF7DBF8F8BD042820D00A
:10613000052821D00F28F8D1A079002860791FD038
:10614000411C6171FDF7D6FB60796428EDD1A77120
:10615000E0796070A078FEF78FFDA089E081F8BD3E
:10616000FEF7E0FDF8BDFEF797FEF8BDFEF79CFFD9
:10617000F8BDFFF70DF8F8BDA078FEF76DF8F8BD93
:10618000411E6171FDF7B6FB60790028F7D101204F
:10619000A071F8BDB8000020AB00002000000B404B
:1061A000E8000020F10E0000BA0900205000002095
:1061B00010B50A480021C278052A03D3084A12788C
:1061C000002A06D08278002A02D08170FEF72AF9D0
:1061D00010BDC170417001228270F6E7E600002018
:1061E000BB00002010B501208007C168C90707D097
:1061F0000169C90704D00068C1B20248FDF7C7FCB5
:1062000010BD0000D80300200021012310B59B071A
:106210000A46984200D18115094B984201D1431595
:106220001943084B984201D103151943064B984274
:1062300001D1C014014301231046FFF79BFA10BDA2
:1062400000000440001000400010044000690840B5
:1062500000D001207047000070B504460D46C88884
:106260008988626808432989184B1A4011430843FA
:1062700069890843606001208007844206D11820A4
:10628000FDF710FD2968FCF753FC6062104884425A
:1062900006D11A20FDF706FD2968FCF749FC60626B
:1062A0000C48844206D11C20FDF7FCFC2968FCF751
:1062B0003FFC60620848844206D11E20FDF7F2FCD4
:1062C0002968FCF735FC606270BD0000FCE0FFFF50
:1062D000000004400010004000100440002AC26882
:1062E00001D00A4300E08A43C260704701607047F2
:1062F000F8B5002401270D460646BF070BE0FF2135
:1063000001313846FFF7A2FF0028F8D0315D38464A
:10631000FFF7ECFF641CAC42F1D3F8BD10238B40B7
:106320004168002A01D0194300E099434160704759
:1063300010B5094C6168A06840224118042000F0A3
:1063400028FA616808188005800D60600349012003
:106350000860FDF7F7F810BDF803002028000020C2
:1063600003498161034941620349C16370470000E9
:10637000D16300007D6300003163000070B5044606
:106380000088114988421EDAFF38A2281BD1E07824
:10639000E588012817D10D48FDF710FC002812D11F
:1063A00043210A48002202E083685A54491E436888
:1063B0008B42F9D980682562E06101202034207188
